:07083E001208657F0A7E002D
:10084500E4FDFCC3ED9FEC9E5015E4FBFA0BBB00E9
:0F085500010ABA04F8BBFBF50DBD00010C80E4ED
:010864002271
:100865008FA0C2B0C2B1D2B67F017E00120845C2C8
:02087500B622A9
:100877008FA0D2B0C2B1D2B67F017E00120845C2A6
:02088700B62297
:100800007F3812083E7F0E12083E7F0112083E7F9D
:100810000612083E7F8612083E7F491208777F4CF9
:100820001208777F4F1208777F561208777F45129C
:0E08300008777F4D1208777F647E000208452E
:030000000208896A
:0C088900787FE4F6D8FD758107020800B6
:00000001FF
